:020000040800F2
:10000000184A002089010008F15E0008F35E00082C
:10001000F55E0008F75E0008F95E000800000000C9
:10002000000000000000000000000000FB5E00086F
:10003000FD5E000800000000DF2F0008FF5E0008E2
:10004000A3010008A3010008A3010008A301000800
:10005000A3010008A3010008A3010008A3010008F0
:10006000A3010008A3010008A3010008A3010008E0
:10007000A3010008A3010008A3010008A3010008D0
:10008000A3010008A3010008A3010008A3010008C0
:10009000A3010008A3010008A3010008A3010008B0
:1000A000A3010008A3010008A3010008A3010008A0
:1000B000A3010008A3010008A3010008A301000890
:1000C000A3010008A3010008A3010008A301000880
:1000D000A3010008A3010008A3010008A301000870
:1000E000A3010008A3010008A301000800F002F822
:1000F00000F03AF80AA090E8000C82448344AAF188
:100100000107DA4501D100F02FF8AFF2090EBAE885
:100110000F0013F0010F18BFFB1A43F0010318473B
:10012000006D0000206D0000103A24BF78C878C12F
:10013000FAD8520724BF30C830C144BF04680C60ED
:10014000704700000023002400250026103A28BF35
:1001500078C1FBD8520728BF30C148BF0B60704739
:100160001FB51FBD10B510BD06F07BF81146FFF797
:10017000F7FF05F07BFE06F099F803B4FFF7F2FFF6
:1001800003BC06F09FF80000094880470948004773
:10019000FEE7FEE7FEE7FEE7FEE7FEE7FEE7FEE737
:1001A000FEE7FEE704480549054A064B7047000094
:1001B000C9010008ED00000818440020184A00207A
:1001C00018460020184600204D4882B0016841F0D2
:1001D0000101016042684B4911404160016821F40E
:1001E000102121F080710160016821F480210160FB
:1001F000416821F4FE0141604FF41F01816000223B
:1002000000920192016841F480310160016801F4BB
:10021000003101910099491C0091019919B9009987
:10022000B1F5A06FF2D1016811F4003F08BF01924F
:1002300033D00121019134490A6842F010020A606A
:100240000A6822F003020A600A6842F002020A60A9
:100250004168416041684160416841F480614160AA
:10026000416821F47C114160416841F4E81141602A
:10027000016841F080710160016811F0007FFBD0DE
:10028000416821F003014160416841F00201416091
:10029000416801F00C010829FAD11C494FF00060B7
:1002A000086002B07047164B5868194A194910F097
:1002B0000C0018BF042801D0082801D00A6015E0FE
:1002C00058685A6800F470104FF0020C12F4803F26
:1002D0000CEB904003D05A6812F4003F03D00E4A52
:1002E0005043086002E00A4A5043086058680B4ACD
:1002F000C0F30310105C0A6822FA00F0086070472F
:10030000001002400000FFF80020024008ED00E06D
:1003100000127A000000002000093D0004000020C7
:100320002C4940F0FD7040F080600860704730B4A8
:10033000C27801784FF00F0C01244FF0E02512B382
:10034000244A126802F4E062C2F5E062120AC2F1C5
:1003500004032CFA02F290F801C00CFA03F390F8AF
:1003600002C00CEA02021A431B4B1201CA54007865
:1003700000F01F0104FA01F1400905EB8000C0F80C
:10038000001130BC704701F01F0004FA00F0490969
:1003900005EB8101C1F8800130BC704721F07F017D
:1003A00021F0604108430D49086070470C4A00295C
:1003B000116814BF084321EA0000106070474FF035
:1003C000E021042808690CBF40F0040020F004007C
:1003D000086170470CED00E000E400E008ED00E08B
:1003E00010ED00E010B5A0F18041B1F5843109D1E4
:1003F0000121042000F08BFA0021BDE81040042008
:1004000000F085BAA0F18041B1F5863109D1012112
:10041000082000F07CFA0021BDE81040082000F020
:1004200076BAA0F18041B1F5883109D101211020BF
:1004300000F06DFA0021BDE81040102000F067BA0E
:10044000A0F18041B1F58A3109D10121202000F0CD
:100450005EFA0021BDE81040202000F058BAA0F15B
:100460008041B1F58C3109D10121402000F04FFAD3
:100470000021BDE81040402000F049BAA0F18041C1
:10048000B1F58E3109D10121802000F040FA002120
:10049000BDE81040802000F03ABAA0F18041B1F5EB
:1004A000903118BF10BD0121080200F030FABDE8FC
:1004B000104000214FF4807000F029BA10B50121DE
:1004C000084600F024FA0021BDE81040012000F0A9
:1004D0001EBA2DE9F00191F803C000220CF00F03C1
:1004E0001CF0100F1CBF91F802C04CEA030391F8F6
:1004F00000C00F270126BCF1000F18BF04681CD0F4
:100500000D8806FA02FC05EA0C05654511D1950037
:1005100007FA05F824EA080403FA05F52C43CD7818
:10052000282D08BFC0F814C003D0482D08BFC0F85C
:1005300010C0521C082AE3D304600A88FF2A87BF30
:1005400044680022BDE8F001704702F1080C0D88F4
:1005500006FA0CFC05EA0C05654511D1950007FA71
:1005600005F824EA080403FA05F52C43CD78282D74
:1005700008BFC0F814C0CD78482D08BFC0F810C01F
:10058000521C082AE1D34460BDE8F00170474FF6E1
:10059000FF710180022181700421C1707047024601
:1005A000002092680A4218BF01207047806880B21C
:1005B000704702460020D2680A4218BF01207047E7
:1005C000C06880B270470161704741617047002A7E
:1005D00014BF016141617047C160704741F48032CE
:1005E0008261816182618169806970472E4B1A68DE
:1005F0004FF6807C02EA0C0242EA001008431860C1
:1006000070472A49C861704770B4DFF89CC010F089
:10061000004F14BFDCF81C20DCF80420C0F30344B6
:100620004FF4401333EA00054FEA50534FEA0313E7
:1006300086B206FA03F316D010F4801F08BF9A435F
:1006400003D0032505FA04F4A24342F070620029A6
:1006500018BF1A4310F0004F14BFCCF81C20CCF880
:10066000042070BC7047DCF8044022F0706224F073
:100670007064CCF80440EAE78A0721F0030101F135
:10068000804101F58031120F0F23D1F808C093404B
:100690002CEA03038B608B68904018438860704796
:1006A000034908607047000000000140000020423C
:1006B000DC002042AC48016841F001010160416862
:1006C000AA4A11404160016821F4102121F0807193
:1006D0000160016821F480210160416821F4FE017C
:1006E00041604FF41F01816070479F490A6822F4FE
:1006F00080320A600A6822F480220A60B0F5803FE6
:1007000004BF086840F4803006D0B0F5802F06BFE3
:10071000086840F4A0207047086070470022410933
:10072000914B012908BF196803D002290CBF196A2F
:10073000596A00F01F00012303FA00F0084218BFB5
:1007400001221046704708B50020874A009000201B
:10075000116811F4003F18BF01200099491C009155
:10076000B1F5A06F01D00028F1D03120FFF7D6FFFE
:10077000002818BF012008BD7B4A116821F0F8014C
:1007800041EAC00010607047794908607047764BB5
:100790005A68084322F47C12104358607047744929
:1007A00008667047704A516821F0030108435060A1
:1007B00070476D48406800F00C0070476A4A516805
:1007C00021F0F001084350607047674A516821F4F6
:1007D000E061084350607047634A516821F46051FA
:1007E00041EAC000506070475F4A0029517A14BF47
:1007F000084321EA0000507270475E490860704764
:10080000594A516821F440410843506070475649A5
:10081000002281F8202081F82020012803D004281C
:100820000CBF0520704781F82000704752490860CE
:1008300070474D490A6A1043086270474F49086083
:100840007047494A10B451684D4B11F00C0118BF64
:10085000042901D0082901D0036015E051685368CC
:1008600001F470114FF0020C13F4803F0CEB914136
:1008700003D0536813F4003F03D0424B5943016047
:1008800002E03F4B5943016051680F23DFF8F8C085
:1008900003EA11111CF80110036823FA01F1416009
:1008A0005368072404EA13231CF8033021FA03F3E6
:1008B0008360536804EAD3231CF80330D940C16035
:1008C0005268032303EA9232ACF104039A5CB1FB51
:1008D000F2F1016110BC7047234A0029516914BF2D
:1008E000084321EA0000506170471F4A00299169BE
:1008F00014BF084321EA0000906170471A4A00299A
:10090000D16914BF084321EA0000D0617047164A3C
:100910000029D16814BF084321EA0000D060704765
:10092000114A0029116914BF084321EA000010612F
:1009300070471649086070470D49C86470470A49F6
:10094000C87170470848416A41F080714162704740
:10095000054A0146002092680A4218BF01207047EC
:100960000149887270470000001002400000FFF843
:1009700000004242D8004242800442423C044242CB
:1009800000127A0000093D00180000204004424295
:1009900010B5A0F18041B1F598310AD101210803C9
:1009A000FFF7B5FFBDE8104000214FF48050FFF77E
:1009B000AEBFA0F18041B1F560510AD10121880399
:1009C000FFF7AEFFBDE8104000214FF48040FFF775
:1009D000A7BFA0F18041B1F5705118BF10BD012132
:1009E000C803FFF79DFFBDE8104000214FF4004011
:1009F000FFF796BF10B402880B88B1F802C0CC880C
:100A000043EA0C03B1F804C002F441524CEA040C6E
:100A100043EA0C03B1F808C043EA0C03B1F80AC07A
:100A200043EA0C03B1F80CC043EA0C03B1F80EC062
:100A300043EA0C031A430280828B22F40062828311
:100A4000098A018210BC7047F0B505460C460220A9
:100A50000021AA8B85B0012622F0BF0222F4706229
:100A6000AA832884AF8BA268022A23D0A0880028FA
:100A700018BF02266846FFF7E4FEE1880098B1F54A
:100A8000007F2DD07101B0FBF1F000EB8000A16878
:100A90004000B0FBF1F0401D80B268494FF6FF7294
:100AA000A1FB0010C00800F00101401AC0F34F0084
:100AB00002EA0121821EFE2A24BF02200021E288D0
:100AC00008431043288420886188A2890843A188AC
:100AD00011430843384340F40060A88305B0F0BDDB
:100AE000000A00EB8000A1684000B0FBF1F0401D5F
:100AF00080B2D2E70021018041808180C1800181E4
:100B000041818181C18107210182704700210180DB
:100B100041808180C18002228260818170470029EA
:100B2000018814BF41F0400121F04001018070476D
:100B30000029818B14BF41F4806121F4806181839D
:100B400070470909012303FA01F1002A828889B25A
:100B500014BF114322EA010181807047002A828874
:100B600014BF114322EA01018180704781817047DF
:100B700080897047A1F57E420188FF3A14BF41F495
:100B8000807121F48071018070470029818814BF31
:100B900041F0040121F0040181807047028822F4B1
:100BA000006202800288114301807047018841F48D
:100BB0008051018070470029018814BF41F4005121
:100BC00021F4005101807047012914BF008B808AF5
:100BD0007047008A7047B1F5804F01880CBF41F41F
:100BE000804121F480410180704702460020128933
:100BF0000A4218BF01207047C9430181704701F0C4
:100C00000F034FF0010C0CFA03F3002209090CFA50
:100C100001F1B0F804C09BB289B200890CEA01016D
:100C200018421CBF002901221046704701F00F0135
:100C3000012202FA01F1C94301817047CDCCCCCC2D
:100C400010B5A0F18041B1F59C310AD10121880392
:100C5000FFF75DFEBDE8104000214FF48040FFF734
:100C600056BEA0F18041B1F588410AD10121480466
:100C7000FFF756FEBDE8104000214FF40030FFF7AB
:100C80004FBEA0F18041B1F590410AD10121880405
:100C9000FFF746FEBDE8104000214FF48020FFF72B
:100CA0003FBEA0F18041B1F598410AD10121C804AD
:100CB000FFF736FEBDE8104000214FF40020FFF79B
:100CC0002FBEA0F18041B1F5A04118BF10BD012198
:100CD0000805FFF725FEBDE8104000214FF4801005
:100CE000FFF71EBE30B50446008A85B00D464CF6AF
:100CF000FF710840E98808432082A0894EF6F3116D
:100D00000840A9882A8911436A8910430843A081B1
:100D1000A08A4FF6FF410840A9890843A08268468F
:100D2000FFF78FFDA4F18040B0F59C300CBF039815
:100D30000298A18911F4004F00EBC00101EB0010F3
:100D4000296814BF49008900B0FBF1F0924A6FF0A6
:100D5000180CA2FB0031490909010B0903FB0CF334
:100D600000EB8300A38913F4004F4FF0320314BF4C
:100D700003EBC00003EB0010A2FB00204FEA501071
:100D800014BF00F0070000F00F000843208105B0F9
:100D900030BD4FF41651016000218180C180018176
:100DA0000C22428181817047028A4FF2FF031A4070
:100DB0000B88B1F802C043EA0C03B1F804C0C9883B
:100DC0004CEA01011943114301827047002101805F
:100DD00041808180C18070470029818914BF41F41E
:100DE000005121F4005181817047C1F3421301F099
:100DF0001F014FF0010C0CFA01F1012B08BF0C3060
:100E000003D0022B0CBF10301430002A026814BF2C
:100E1000114322EA010101607047002A828A14BF4F
:100E2000114322EA010181827047028A22F00F02F7
:100E30000282028A114301827047828922F4006291
:100E4000828182891143818170470029818914BF81
:100E500041F0020121F0020181817047028A22F0F3
:100E600020020282028A1143018270470029018A0E
:100E700014BF41F4804121F4804101827047C1F3E5
:100E80000801818070478088C0F30800704781891D
:100E900041F0010181817047028BD2B20283028B43
:100EA00042EA012101837047028B02F47F420283F0
:100EB000028B1143018370470029818A14BF41F0DE
:100EC000200121F02001818270470029818A14BF0E
:100ED00041F0100121F01001818270470029818AC0
:100EE00014BF41F0080121F00801818270470029F8
:100EF000818914BF41F40041C1F30E018181704723
:100F00000029818A14BF41F4006121F400618182CB
:100F10007047828A22F004028282828A114381828F
:100F200070470029818A14BF41F0020121F00201BB
:100F3000818270470246002012880A4218BF0120B1
:100F40007047C9430180704710B401F01F020124AB
:100F5000C1F3421304FA02F24FF0000C012B04BF5C
:100F600083891A4004D0022B0CBF038A838A1A405B
:100F7000090A008804FA01F10840002A1CBF002871
:100F80004FF0010C604610BC7047090A012202FABA
:100F900001F1C943018070471F85EB5110B5A0F1E5
:100FA0008041B1F596310AD10121C802FFF7AFFCAB
:100FB000BDE8104000214FF40060FFF7A8BCB0F17D
:100FC000804F0ED0A0F18041B1F5806113D1012195
:100FD0000220FFF7A5FC0021BDE810400220FFF72A
:100FE0009FBC01210846FFF79BFC0021BDE8104093
:100FF0000120FFF795BCA0F18041B1F5006109D156
:1010000001210420FFF78CFC0021BDE810400420E2
:10101000FFF786BCA0F18041B1F5406109D1012103
:101020000820FFF77DFC0021BDE810400820FFF7F5
:1010300077BCA0F18041B1F5805109D10121102088
:10104000FFF76EFC0021BDE810401020FFF768BCE0
:10105000A0F18041B1F5A05109D101212020FFF775
:101060005FFC0021BDE810402020FFF759BCA0F133
:101070008041B1F59A310AD101214803FFF747FCBD
:10108000BDE8104000214FF40050FFF740BCA0F134
:101090008041B1F5A6310AD10121C804FFF737FC20
:1010A000BDE8104000214FF40020FFF730BCA0F154
:1010B0008041B1F5A8310AD101210805FFF727FCCD
:1010C000BDE8104000214FF48010FFF720BCA0F1D4
:1010D0008041B1F5AA310AD101214805FFF717FC7B
:1010E000BDE8104000214FF40010FFF710BCA0F144
:1010F0008041B1F5C05109D101214020FFF710FC1A
:101100000021BDE810404020FFF70ABCA0F180415B
:10111000B1F5E05109D101218020FFF701FC002148
:10112000BDE810408020FFF7FBBBA0F18041B1F586
:1011300000510AD101210802FFF7F2FBBDE810407F
:1011400000214FF48070FFF7EBBBA0F18041B1F5B7
:10115000A0310AD101210804FFF7D9FBBDE81040F6
:1011600000214FF48030FFF7D2BBA0F18041B1F5F0
:10117000A2310AD101214804FFF7C9FBBDE81040A4
:1011800000214FF40030FFF7C2BBA0F18041B1F560
:10119000A43118BF10BD01218804FFF7B8FBBDE8DA
:1011A000104000214FF48020FFF7B1BB10B402883B
:1011B000DFF8F0C3FC4B604518BF984211D0B0F186
:1011C000804F1CBFA0F18044B4F5806409D0A0F129
:1011D0008044B4F500641CBFA0F18044B4F54064C1
:1011E00003D14C8822F070022243A0F18044B4F570
:1011F00080541CBFA0F18044B4F5A05403D0CC8827
:1012000022F44072224302808A8882850A880285FD
:10121000604518BF98420DD0A0F18042B2F5A032CF
:101220001FBFA0F18042B2F5A232A0F18042B2F518
:10123000A43201D1097A01860121818210BC704754
:1012400010B4028C22F001020284028C8388B0F870
:1012500018C00C882CF0730C44EA0C0C0C8922F09A
:10126000020222434C882243A0F18044B4F5963414
:101270001CBFA0F18044B4F59A340DD0A0F1804495
:10128000B4F5A0341FBFA0F18044B4F5A234A0F19E
:101290008044B4F5A4340DD14C8922F008022243D5
:1012A0008C8822F0040222438C8923F44073234368
:1012B000CC8923438380A0F818C0C9888186028422
:1012C00010BC704730B4028C22F010020284028CF1
:1012D0008388B0F818C00D882CF4E6444FF6FF7CE4
:1012E0000CEA05252C430D8922F020020CEA051595
:1012F0002A434D880CEA05152A43A0F18045B5F52F
:1013000096351CBFA0F18045B5F59A3516D14D89AB
:1013100022F080020CEA05152A438D8822F0400253
:101320000CEA05152A438D8923F440630CEA8505F0
:101330002B43CD890CEA850C4CEA0303838004839C
:10134000C9880187028430BC704730B4028C22F413
:1013500080720284028C8388B0F81CC00C882CF048
:10136000730C44EA0C040D894FF6FF7C22F40072E2
:101370000CEA05252A434D880CEA05252A43A0F1ED
:101380008045B5F596351CBFA0F18045B5F59A3579
:1013900016D14D8922F400620CEA05252A438D8876
:1013A00022F480620CEA05252A438D8923F44053F8
:1013B0000CEA05152B43CD890CEA051C4CEA030306
:1013C00083808483C9888187028430BC704730B4AD
:1013D000028C22F480520284038C8288B0F81CC0F4
:1013E0000D884FF6FF742CF4E64C04EA052545EA17
:1013F0000C0C0D8923F4005304EA05352B434D886A
:1014000004EA05352B43A0F18045B5F596351CBFA0
:10141000A0F18045B5F59A3505D18D8922F4804239
:1014200004EA851422438280A0F81CC0C988A0F871
:101430004010038430BC7047828B22F44062828368
:10144000828B4FF6FF7303EA0121114381837047BA
:10145000828B22F00C028283828B1143818370473E
:10146000028B22F440620283028B4FF6FF7303EA81
:10147000012111430183704770B4B0F820C02CF0F3
:10148000100CA0F820C0058BB0F820C04FF6FF76F6
:1014900025F4734506EA03332B4306EA02221A4376
:1014A000A0F1804306EA0114B3F596331CBFA0F106
:1014B0008043B3F59A3314D0B0F1804F1CBFA0F134
:1014C0008043B3F580630CD0A0F18043B3F5006393
:1014D0001FBFA0F18043B3F540632CF0A003194374
:1014E00002D12CF02001214341F01001028301843C
:1014F00070BC7047028B22F00C020283028B1143F6
:10150000018370472DE9F05F0D4604460888254F9A
:10151000DFF89480DFF89490DFF894A0DFF894E08F
:101520004988AA882B89002846D04FF6FF760428E0
:101530004ED00828208C59D020F480502084B4F854
:101540001CB0208C2BF4734B06EA022242EA0B02F9
:1015500006EA03331A4306EA013CBC4218BF44457D
:101560000BD0B4F1804F18BF4C4506D054451EBF78
:10157000744520F40240084303D120F4005040EAAF
:101580000C0040F48050A2832084A879A18B21F420
:101590004061A183A18B06EA00200843A083BDE837
:1015A000F09F0000002C0140003401400004004086
:1015B00000080040000C0040204600F01FFBE888B7
:1015C000218B21F00C012183218B08432083E6E746
:1015D0002046FFF751FFA879218B21F44061218338
:1015E000218B06EA002008432083D8E720F480708E
:1015F0002084B4F81CC0208C06EA03131A432CF094
:10160000F30C06EA012B42EA0C02BC4218BF444527
:101610000BD0B4F1804F18BF4C4506D054451EBFC7
:10162000744520F42060084303D120F4007040EAA0
:101630000B0040F48070A2832084E888A18B21F005
:101640000C01A183A18B0843A083A8E72DE9F041F9
:101650000C464988012605464FF00008002908BFBE
:101660004FF00208A288012A08BF02262088238999
:1016700000284FF6FF7728461BD0FFF7FDFEA07924
:10168000298B21F440612983298B07EA0020084334
:101690002883238932464146284600F0AFFAE08885
:1016A000298B21F00C012983298B08432883BDE86D
:1016B000F08100F0A3FAE088298B21F00C01298346
:1016C000298B084328832389324641462846FFF761
:1016D000D3FEA079298B21F440612983298B07EA65
:1016E000002008432883BDE8F0810A884B88B1F8C0
:1016F00006C01A438B8843EA0C031A430B891A432A
:101700004B8989891A431143A0F8441070474FF65A
:10171000FF71818000210180C1804180017270478A
:101720000021018041808180C180018141818181CE
:10173000C181704700210180418001228280C180E7
:10174000018170470021018041808180C180018139
:101750004181818170470029018814BF41F0010156
:1017600021F00101018070470029B0F8441014BF36
:1017700041F40041C1F30E01A0F844107047002A63
:10178000828914BF114322EA01018181704781825D
:1017900070471143A0F848107047002A828914BF8F
:1017A000114322EA010181817047018921F007017B
:1017B00001817047028922F0700211430181704754
:1017C000028922F0700211430181018941F0070171
:1017D0000181704770B594460D46602904464FF06C
:1017E000010261460BD000F009FA208920F0700058
:1017F00028432081208940F00700208170BDFFF739
:101800003BFEF2E710B4B0F808C04FF6FF7404EAEC
:1018100003231A430CF0FF0C114341EA0C01018130
:1018200010BC704710B4B0F808C04FF6FF7404EA5B
:1018300003231A430CF0FF0C114341EA0C01018110
:10184000018941F07701018110BC704710B4B0F8F4
:1018500008C04FF6FF7404EA03231A430CF0FF0C90
:10186000114341EA0C010181018941F48041018168
:1018700010BC7047018582827047028822F0700296
:1018800011430180704730B40589B0F818C0048C4A
:1018900025F0070529432CF0030C2CF4407C40F282
:1018A00001154CEA050C4FF6FF7505EA031324F009
:1018B00022041A4322430181A0F818C0028430BCDC
:1018C0007047028B22F07002114301837047028B34
:1018D0004FF6FF7322F4E04203EA01211143018332
:1018E0007047828B22F07002114381837047828B94
:1018F0004FF6FF7322F4E04203EA01211143818392
:1019000070470029018814BF41F0800121F0800157
:10191000018070470029818814BF41F0040121F043
:101920000401818070470029818814BF41F00801BB
:1019300021F00801818070470029818814BF41F09F
:10194000010121F0010181807047028B22F0080221
:10195000114301837047028B4FF6FF7322F400623C
:1019600003EA0121114301837047828B22F00802B0
:10197000114381837047828B4FF6FF7322F400621C
:1019800003EA0121114381837047028B22F0040294
:10199000114301837047028B4FF6FF7322F480627C
:1019A00003EA0121114301837047828B22F0040274
:1019B000114381837047828B4FF6FF7322F480625C
:1019C00003EA0121114381837047028B22F08002D8
:1019D000114301837047028B4FF6FF73C2F30E026F
:1019E00003EA0121114301837047828B22F08002B8
:1019F000114381837047828B4FF6FF73C2F30E024F
:101A000003EA0121114381837047028C22F0020214
:101A1000114301847047028C22F0080211430184B3
:101A20007047028C4FF6FF7322F0200203EA011187
:101A3000114301847047028C4FF6FF7322F080023D
:101A400003EA0111114301847047028C4FF6FF73C2
:101A500022F4007203EA0121114301847047028CD1
:101A60004FF6FF7322F4006203EA0121114301845F
:101A70007047028C4FF6FF7322F4005203EA0131E3
:101A80001143018470470123B0F820C08B402CEA39
:101A900003030384038C02FA01F1194301847047A4
:101AA0000423B0F820C08B402CEA03030384038C8A
:101AB00002FA01F119430184704710B44FF0010C90
:101AC000048C00F118030CFA01FC24EA0C0CA0F8B9
:101AD00020C0002918BF082910D0081FC0F34E00ED
:101AE0001844016821F4E041016001684FF6FF737A
:101AF00003EA02221143016010BC704703EB51005E
:101B0000016821F07001016001681143016010BC9F
:101B100070470029018814BF41F0020121F0020141
:101B2000018070470029018814BF41F0040121F0B1
:101B30000401018070470029818814BF41F08001B1
:101B400021F0800181807047028822F00802028023
:101B50000288114301807047828822F070028280DF
:101B60008288114381807047028922F00702028136
:101B70000289114301817047028922F080020281AB
:101B800002891143018170478184704781857047C4
:101B9000818670470187704781877047A0F84010A1
:101BA0007047028822F4407202800288114301804B
:101BB0007047808E7047008F7047808F7047B0F8F5
:101BC00040007047808C7047008D704702460020AF
:101BD000128A0A4218BF01207047C9430182704728
:101BE000038A002280890B4200EA01001CBF002802
:101BF000012210467047C9430182704730B4B0F8E3
:101C000020C02CF0010CA0F820C0048BB0F820C03C
:101C10004FF6FF7505EA03131A4324F0F304224339
:101C2000A0F18043B3F596331CBFA0F18043B3F518
:101C30009A3311D0B0F1804F1CBFA0F18043B3F5AF
:101C4000806309D0A0F18043B3F500631CBFA0F10D
:101C50008043B3F5406305D12CF00203194341F0F2
:101C6000010104E02CF00A03194341F00101028351
:101C7000018430BC7047000010B5A0F18041B1F57F
:101C800092310AD101214802FEF741FEBDE8104021
:101C900000214FF40070FEF73ABEA0F18041B1F58B
:101CA00094310AD101218802FEF731FEBDE81040CF
:101CB00000214FF48060FEF72ABEA0F18041B1F50B
:101CC0009E3118BF10BD0121C803FEF720FEBDE8FC
:101CD000104000214FF40040FEF719BE426891F811
:101CE00004C022F4807222F470220B6842EA0C22B3
:101CF0001A4342608268BD4B1A40D1E902C343EAED
:101D00000C0391F805C042EA4C021A438260C26A91
:101D1000097C22F47002491EC9B242EA0151C16233
:101D2000704700210160017141718160C160012132
:101D3000017470470029816814BF41F0010121F04E
:101D40000101816070470029816814BF41F48071EE
:101D500021F4807181607047002A4268C9B214BFC3
:101D6000114322EA010141607047816841F0080196
:101D70008160704701460020896811F0080F18BF84
:101D800001207047816841F004018160704701467D
:101D90000020896811F0040F18BF01207047002946
:101DA000816814BF41F4A00121F4A0018160704753
:101DB00001460020896811F4800F18BF0120704788
:101DC0004268491E22F4604242EA41314160704754
:101DD0000029416814BF41F4006121F400614160B1
:101DE000704730B4072509290CD9C468A1F10A0C41
:101DF0000CEB4C0C05FA0CF5AC4303FA0CF3234343
:101E0000C36009E0046901EB410C05FA0CF5AC4331
:101E100003FA0CF3234303614FF01F0C072A0CD283
:101E2000436B521E02EB82020CFA02FC23EA0C0303
:101E300091401943416330BC70470D2A0CD2036BAB
:101E4000D21F02EB82020CFA02FC23EA0C0391403F
:101E50001943016330BC7047C36A0D3A02EB82023A
:101E60000CFA02FC23EA0C0391401943C16230BC16
:101E700070470029816814BF41F4801121F480115A
:101E800081607047C06C80B27047594800687047E5
:101E90000029416814BF41F4806121F480614160F0
:101EA00070470029416814BF41F4805121F48051EA
:101EB00041607047826822F4E042114381607047BC
:101EC0000029816814BF41F4004121F40041816080
:101ED00070470029816814BF41F4021121F40211F6
:101EE0008160704701460020896811F4001F18BF07
:101EF0000120704730B4072509290CD9C468A1F125
:101F00000A0C0CEB4C0C05FA0CF5AC4303FA0CF381
:101F10002343C36009E0046901EB410C05FA0CF5A9
:101F2000AC4303FA0CF323430361836BC3F3015CFB
:101F3000A2EB0C02921C02EB82024FF01F0C0CFA77
:101F400002FC23EA0C0391401943816330BC7047C3
:101F5000826B491E22F4401242EA015181637047AC
:101F600081B008440090026001B0704781B008441D
:101F700028300090006801B080B27047426822F4B7
:101F8000007222F440021143416070474162826254
:101F90007047426822F01F021143416070471549A3
:101FA0000028086814BF40F4000020F40000086016
:101FB00070470246002012680A4218BF012070478D
:101FC000C943016070470022D0F804C00B0AC9B2AF
:101FD00000680CEA010118421CBF002901221046CA
:101FE00070476FEA1121016070470000FDF7F1FFB3
:101FF0004C2401400824014038B501211020FEF78F
:1020000074FC4FF40050ADF8000010208DF8030070
:1020100001200B4C8DF8020069462046FEF759FA64
:1020200061142046FEF7D1FA38BD4FF40051044840
:10203000FEF7CBBA4FF400510148FEF7C4BA0000D6
:102040000010014010B56FF00400FEF7B8F92D48FC
:102050002D4901220068B0FBF1F12C48017042804B
:102060004FF0E02042F22831026942F002020261A0
:102070004161016941F00101016110BD30B44FF0CF
:10208000E02400216369214A127800FB02FCA26966
:10209000A0699042FCD026BF1D1A2A44121A11448E
:1020A00002466145F4D330BC704770B50446184809
:1020B000164D007801280CD16888844204D9B4FBFD
:1020C000F0F080B202F004FB6888B4FBF0F100FB92
:1020D00011444FF47A7004FB00F14FF0E02400202B
:1020E00063692A7801FB02FCA269A1699142FCD0D4
:1020F00026BF5D1A2A44521A10440A466045F4D39A
:1021000070BD00000000002000127A0028000020AE
:102110004100002010B586B001210420FEF7E5FB48
:1021200001218803FEF7E1FB4FF40070ADF81000C9
:1021300003208DF812001820884C8DF8130004A994
:102140002046FEF7C6F92115ADF8101004218DF8D0
:10215000131004A92046FEF7BCF94FF4E1300090BB
:102160000020ADF80400ADF80600ADF80800ADF8A9
:102170000C000C207A4CADF80A0069462046FEF7A8
:10218000B1FD01212046FEF727FE06B010BD70B557
:10219000734D044640212846FEF7CCFE0028F9D0B6
:1021A000E1B22846FEF76BFE204670BD70B56C4C60
:1021B000054640212046FEF7BDFE0028F9D02946FD
:1021C0002046BDE87040FEF75ABE70B50446007860
:1021D000002814BF624D70BD40212846FEF7AAFEBC
:1021E0000028F9D014F8011B2846FEF748FE207895
:1021F0000028F1D170BD70B50546481E84B2002993
:1022000014BF574E70BD40213046FEF793FE0028A4
:10221000F9D015F8011B3046FEF731FE2000A4F17D
:1022200001018CB2EFD170BD2DE9F0414DA282B019
:10223000D2E900320025CDE90032494F2946002875
:10224000B8BF40421ABFDFF824C16E4630241BD00D
:102250008CFB00324FEAA203A3EBE272C2F100034F
:1022600003EB830300EB4300C1F1060300F13000F0
:1022700001F10101F054C9B210460729E8D3002446
:10228000B846375D6DB121E040213846FEF752FE79
:102290000028F9D021463846FEF7F1FD02B0BDE82E
:1022A000F081302F18BF012509D040214046FEF7AC
:1022B00041FE0028F9D039464046FEF7E0FD601C9B
:1022C000C4B2072CDDD302B0BDE8F0814021404606
:1022D000FEF730FE0028F9D0EDE770B5244904F090
:1022E0004FFC04F031FCFFF79FFF1D4D21A440215E
:1022F0002846FEF71FFE0028F9D014F8011B2846D7
:10230000FEF7BDFD20780028F1D170BD70B5044600
:102310000078134D0E4668B140212846FEF70AFEAC
:102320000028F9D014F8011B2846FEF7A8FD2078F4
:102330000028F1D13046FFF777FF10A4402128464E
:10234000FEF7F8FD0028F9D014F8011B2846FEF727
:1023500096FD20780028F1D170BD000000080140F2
:1023600000380140303030303030303067666666DB
:1023700000007A442E66330D0A0000000D0A0000AA
:1023800070B50C4605461021FE4E3046FEF71DF98D
:1023900004F01F00284300F066FBFF2000F063FB01
:1023A000054614F0800F03D0FF2000F05CFB0546CB
:1023B00010213046FEF707F9284670BD2DE9F0419F
:1023C000F04F0C460546164610213846FEF7FDF83C
:1023D00004F01F00284300F046FB304600F043FBAA
:1023E0003846BDE8F0411021FEF7EDB870B5E54E76
:1023F0000C46054610213046FEF7E7F83A2000F07B
:1024000032FB44B1601E84B2002000F02CFB05F8C2
:10241000010B002CF6D13046BDE870401021FEF7CC
:10242000D2B870B5D74E0C46054610213046FEF79F
:10243000CCF87A2000F017FB3CB1601E84B22878FB
:1024400000F011FB6D1C002CF7D13046BDE8704048
:102450001021FEF7B8B870B5CB4E054600F0600409
:102460003078844208BF70BD03221F21A020FFF7EF
:10247000A5FFC5F341121F218020FFF79FFF347095
:1024800070BD10B50446FFF7E6FF2146BDE81040D9
:10249000002075E770B50C460546FFF7DCFF2246C5
:1024A0002946BDE87040402088E770B5D42605462F
:1024B0000C463046FFF7CFFF2A4631464020FFF753
:1024C0007DFFD625E6B22846FFF7C5FF32462946EE
:1024D0004020FFF773FFD725240A2846FFF7BBFFEC
:1024E000224629464020FFF769FFEA242046FFF7ED
:1024F000B2FF21460020FFF743FF10F0010FF4D197
:1025000070BDF8B5044601210420FEF7EEF9102055
:10251000ADF8000001218DF802109A4D8DF80300EE
:1025200069462846FDF7D5FF10212846FEF74BF8EF
:10253000FF2200211046FFF741FF1D252846FFF727
:102540008AFF29460020FFF71BFF10F0010FF4D08F
:102550008D480026082546802846FFF77CFF324636
:1025600029464020FFF72AFF09252846FFF773FF79
:10257000324629464020FFF721FF0C252846FFF769
:102580006AFF324629464020FFF718FF0D252846EE
:10259000FFF761FF324629464020FFF70FFF0A256B
:1025A000FE272846FFF757FF3A4629464020FFF707
:1025B00005FF0B2519272846FFF74DFF3A46294608
:1025C0004020FFF7FBFE0425FF272846FFF743FFC7
:1025D0003A4629464020FFF7F1FE052519272846EF
:1025E000FFF739FF3A4629464020FFF7E7FE062568
:1025F000FF272846FFF72FFF3A4629464020FFF7DE
:10260000DDFE07251F272846FFF725FF3A46294606
:102610004020FFF7D3FE3825B0272846FFF71BFFE1
:102620003A4629464020FFF7C9FE28253F2728467D
:10263000FFF711FF3A4629464020FFF7BFFE292544
:1026400030272846FFF707FF3A4629464020FFF784
:10265000B5FE3025F9272846FFF7FDFE3A46294604
:102660004020FFF7ABFE3125F7272846FFF7F3FEA2
:102670003A4629464020FFF7A1FEC0250D272846EF
:10268000FFF7E9FE3A4629464020FFF797FEC125AD
:102690002846FFF7E0FE324629464020FFF78EFE2F
:1026A0003322C2218020FFF789FEC6251226284644
:1026B000FFF7D1FE324629464020FFF77FFEC725AF
:1026C0000C262846FFF7C7FE324629464020FFF772
:1026D00075FEC42515262846FFF7BDFE324629465D
:1026E0004020FFF76BFECA25DC262846FFF7B3FE25
:1026F000324629464020FFF761FECB2505262846B5
:10270000FFF7A9FE324629464020FFF757FEE42591
:1027100026782846FFF79FFE324629464020FFF7DD
:102720004DFEE52566782846FFF795FE3246294698
:102730004020FFF743FEE225A6782846FFF78BFEF0
:10274000324629464020FFF739FEE326E578304639
:10275000FFF781FE2A4631464020FFF72FFEE02694
:1027600025793046FFF777FE2A4631464020FFF7AD
:1027700025FEE12564792846FFF76DFE22462946AD
:10278000402003E0000801402C000020FFF716FE67
:102790004FF480710020FFF788FE40F2764114204C
:1027A000FFF783FE4FF480711020FFF77EFE1F209D
:1027B000FFF751FEC1221B218020FFF7FFFD0422FD
:1027C0001F218020FFF7FAFDF8BD2DE9F0410C46EE
:1027D00005461F263046FFF73EFE31460020FFF734
:1027E000CFFD10F0080FF4D10226FF273046FFF787
:1027F00032FE3A4631464020FFF7E0FD0326192716
:102800003046FFF728FE3A4631464020FFF7D6FD16
:1028100041F6FF102618062706F0FF083846FFF796
:102820001AFE424639464020FFF7C8FD0727C6F387
:1028300007263846FFF70FFE324639464020FFF79D
:10284000BDFD002211467A20FFF7B8FD5C4E102135
:102850003046FDF7BAFE7A2000F005F93CB1601E63
:1028600084B2287800F0FFF86D1C002CF7D11021FD
:102870003046FDF7A8FE08221F218020FFF79EFDAD
:102880001C242046FFF7E7FD21460020FFF778FDD6
:1028900010F0020F08BFBDE8F0811F20FFF7DBFD3D
:1028A000BDE8F04108221F21A02087E52DE9F04175
:1028B0000546392488462046FFF7CDFD21460020F5
:1028C000FFF75EFD002808BFBDE8F08100243D4F02
:1028D0002046BE78FFF7BFFD324621464020FFF775
:1028E0006DFD78880124060A2046FFF7B4FD3246C4
:1028F00021464020FFF762FD00213A20FFF740FD0E
:10290000788000213A20FFF73BFD798841EA0020DA
:10291000788000213A20FFF733FD044600213A2059
:10292000FFF72EFD44EA0020001F86B200213A2066
:10293000FFF726FD044600213A20FFF721FD44EA77
:102940000021A8F101008642C8BF86B211F0800FB5
:1029500008BF002617D0DFF86880344610214046B3
:10296000FDF733FE3A2000F07EF844B1601E84B2D9
:10297000002000F078F805F8010B002CF6D11021AA
:102980004046FDF720FE0C24BD782046FFF763FD8E
:102990002A4621464020FFF711FD78880D24050ABC
:1029A0002046FFF758FD2A4621464020FFF706FD46
:1029B00040221E218020FFF701FD3046BDE8F08156
:1029C000000801402C00002030B587B00121042010
:1029D000FDF78BFFA020ADF8140018208DF817002C
:1029E0002D4D03248DF8164005A92846FDF771FDED
:1029F0004021ADF8141004218DF817108DF8164001
:102A000005A92846FDF765FD01210803FDF76DFFC7
:102A100000212248FEF783F80020ADF800004FF4B3
:102A20008271ADF80210ADF808006915ADF80A1012
:102A30001021ADF80C10ADF80400ADF80600ADF8AB
:102A40000E000720164CADF8100069462046FDF731
:102A5000D1FF01212046FEF798F801212046FEF71C
:102A60005EF807B030BD70B50D4C0546022120461A
:102A7000FEF7BBF80028F9D029462046FEF776F885
:102A800001212046FEF7B1F80028F9D02046FEF7D4
:102A90006FF8C0B270BD000000080140003800406F
:102AA000003001402DE9F0470446012188B0C802FA
:102AB000FDF71BFF01210846FDF720FF012104203F
:102AC000FDF713FF40F60E11ADF81C1018218DF81C
:102AD0001F1001268DF81E6007A95748FDF7F9FC65
:102AE000B007FEF75BFA5548554FB0FBF4F038805D
:102AF0000024ADF814004FF04708ADF81080ADF891
:102B00001640ADF812408DF8184004A9B007FEF742
:102B10004DFB01218807FEF7F4FE4FF06009022506
:102B2000ADF80090ADF80260ADF80640ADF8085081
:102B300069466807FEF7C6FB69466807FEF705FCAD
:102B400069466807FEF743FC0821C806FEF703FF45
:102B50000821C806FEF709FF0821C806FEF70BFF8B
:102B600001218807FEF7F7FDDFF8D8A05046FEF7F1
:102B700015FA3888ADF81400ADF81080ADF816409D
:102B8000ADF812408DF8184004A95046FEF70EFB30
:102B900001215046FEF7B5FE0420ADF80400ADF863
:102BA0000090ADF80260ADF80640ADF808506946F7
:102BB0005046FEF745FB69465046FEF708FC0821E3
:102BC0005046FEF7C2FE08215046FEF7D4FE012112
:102BD0005046FEF7C0FD01215046FEF7C5FD08B086
:102BE000BDE8F0878446642988BF7047144A164BB5
:102BF00012885143A3FB01011248C1F34F11BCF1EC
:102C0000060F28BF7047DFE80CF01503070D091108
:102C1000511A89B2FEF7BCBFFEF7C0BF4FF080402B
:102C2000FEF7B8BF4FF08040FEF7B8BF4FF08040CE
:102C3000FEF7B2BF704700000008014040420F009D
:102C400030000020002C01401F85EB5101280ED0E0
:102C5000022818BF70472348012905D0002918BF52
:102C600070472021FDF7B1BC2021FDF7ACBC1E4808
:102C7000012906D0002918BF70474FF48051FDF795
:102C8000A4BC4FF48051FDF79EBCF8B5012104208F
:102C9000FDF72BFE01210820FDF727FE4FF48050A1
:102CA000ADF800001025104E8DF8035003248DF868
:102CB000024069463046FDF70CFC2021ADF80010BB
:102CC0008DF803508DF80240064C69462046FDF70A
:102CD00000FCA1143046FDF778FC20212046FDF7CA
:102CE00074FCF8BD000C0140000801402DE9F8011A
:102CF000554B4FF400541C6062001A6095101D6023
:102D0000411EC9B24FF4C876A3F1040C002818BFC5
:102D10004FF4004710D01F601A6000960098A0F191
:102D20000108CDF800800028F8D1CCF80020080078
:102D3000A1F10101C9B2EED1CCF80040CCF80050AD
:102D400000960098411E00910028FAD11D601C6079
:102D5000BDE8F80170472DE9F00F3B4C82B04FF40D
:102D60008059C4F800904FF4005AC4F800A04FF402
:102D7000804626604FF4C8750095009A531E009354
:102D8000002AFAD14A1E314F02F0FF0C00291CBF65
:102D90004FF0000B4FF4004830D010F8013B8DF895
:102DA00000B08DF800B09DF8001008291FD22660F1
:102DB000019501994A1E01920029FAD113F0800F62
:102DC00014BFC7F80080C4F800803E6001950199E7
:102DD0004A1E01920029FAD159060B0E9DF80010E7
:102DE000491C8DF800109DF800100829DFD35FEA18
:102DF0000C01ACF1010202F0FF0CCED1009500985D
:102E0000411E00910028FAD1C7F800900095009863
:102E1000411E00910028FAD1266000950098411EBD
:102E200000910028FAD1C7F800A000950098411E33
:102E300000910028FAD1C4F800A0C4F8009002B0B4
:102E4000BDE8F00F70470000140C0140100C014069
:102E500038B501210820FDF748FD4FF47040ADF86A
:102E6000000010208DF803000320094C8DF80200AB
:102E700069462046FDF72DFBA1142046FDF7A3FB74
:102E80004FF4C0412046FDF7A0FB38BDFFF763BFFC
:102E9000000C014010B5012186B04802FDF725FD68
:102EA000394C2046FEF7E8FE012100238DF804107E
:102EB0008DF805104FF460228DF810100093CDE9C5
:102EC000022369462046FEF709FF01212046FEF74E
:102ED00031FF2046FEF749FF2046FEF74BFF002852
:102EE000FAD12046FEF74EFF2046FEF750FF00289D
:102EF000FAD10523012210212046FEF772FF01209E
:102F0000FFF74DF801212046FEF749FF06B010BD3E
:102F100070B51D4E1D4D00240523012210213046A1
:102F2000FEF75FFF01213046FEF739FF02213046F0
:102F3000FFF73FF80028F9D03046FEF7A3FF25F849
:102F40001400601CC4B2042CE6D3288869880844A5
:102F5000A988EA881144084440F38F0040F2A46134
:102F6000081A03F0F2FB0022094B03F067FA002273
:102F7000084B03F0BBF90022074B03F0FDFB03F005
:102F8000B5FB00B270BD00000024014034000020F9
:102F9000000012400000334000005940EFF3108061
:102FA00072B6704780F3108870471D484FF0FF01DC
:102FB0000170002080F309881A48012101701A4825
:102FC0004FF08051016062B6FEE717484FF0805124
:102FD0000160704714484FF080510160704772B62D
:102FE000EFF3098028B1203880E8F00F0F49096815
:102FF000086000B50E4880475DF804EB0D480E49A7
:103000000A78027009480D490A680260106890E861
:10301000F00F203080F309884EF0040E62B670473E
:1030200022ED00E04100002004ED00E0540000200B
:10303000C13000083E0000203F0000205C0000205E
:103040007047704770477047704770474FF0807304
:10305000136042F8040C6FF0010342F8083C4FF093
:10306000123342F80C3C4FF0033342F8103C4FF05F
:10307000023342F8143C5B1042F8183C42F81C1C26
:103080004FF0113142F8201C190142F8241C4FF076
:10309000093142F8281CD90042F82C1C4FF00731A6
:1030A00042F8301C4FF0063142F8341C4FF0053125
:1030B00042F8381C9900A2F13C0042F83C1C7047D1
:1030C00070477047704700000B7800223BB100F852
:1030D000013B521C11F8013FD2B2002BF7D1002165
:1030E0000170104670472DE9F0410446FF480D4637
:1030F0001746007820B1112010700020BDE8F08143
:103100002078012818BF022808D0032818BF0428F7
:1031100004D0012010700020BDE8F081FFF73EFFD1
:1031200014F80F1F002639B105F8011B711CCEB22F
:1031300014F8011F0029F7D100242C70FFF732FF8B
:103140003C703046BDE8F081027800212AB1491C6C
:1031500010F8012FC9B2002AF9D10846704770B59E
:103160000646E2480C4615460078002818BF122093
:1031700001D0107070BD3378012B18BF022B04D022
:10318000032B1CBF042B0120F3D1FFF707FF22788C
:10319000014623464FF0000C3AB10CF1010000F05B
:1031A000FF0C13F8010F0028F7D1BCF1070F05D968
:1031B0000846FFF7F7FE0B20287070BD06F10F00E0
:1031C00032B114F8012B00F8012B2278002AF8D133
:1031D000002404700846FFF7E5FE2C7070BD30B483
:1031E00090F82E4090F830C090F82F5008680028D2
:1031F00004BF30BC70470319DA7AAA43DA7203D1EC
:10320000827A22EA0C02827251F8040F0028F2D16D
:1032100030BC704710B5FFF7C1FEB44A04461078C1
:10322000002804BF5078002818D1B1481179B14B5B
:10323000415C5B5CC05C00EBC100C1B2D1709078B6
:1032400081420BD0AC4850F821101162486B401CF1
:1032500048639068401C9060FFF7B7FE2046BDE8C9
:103260001040FFF79FBE30B4A04C0022A169C1E915
:1032700007200168B1B1D4F818C001F10B039CF824
:103280002E209CF82FC0D55C45EA0C0C02F803C038
:10329000A3698A7A93F830301A438A7250F8041F6F
:1032A0000029E8D1A069934B90F82E1090F82FC018
:1032B0005A5C32EA0C025A541CBF30BC704790F87A
:1032C0003000217921EA0000207130BC70472DE9DF
:1032D000FF4F81B04FF0000ADDF838800D46C1F88D
:1032E00000A00168164681464FF0010B71B10978C4
:1032F000022918BF032905D088F800B005B00020C6
:10330000BDE8F08F50F8041F0029F0D1774801780C
:1033100031B1022088F8000005B00020BDE8F08F30
:103320007248407800281CBF0D2088F80000E5D1C5
:10333000FFF734FE00230090D9F800401F461946DD
:103340004A46CCB12078022848D0032872D120897F
:10335000002808BF41F0010108D0401E2081012350
:1033600045F8044B781C46F804AB87B252F8044F7A
:10337000002CE7D1012B52D05C4841F080018069DC
:1033800090F82A20114380F82A1080F82BA0049985
:1033900001854846FFF767FF0098FFF703FEFFF738
:1033A00039FFFFF7FBFD00905048806990F82B1023
:1033B000002918BF02293ED04946FFF710FF4B4AAB
:1033C000916991F82B00002842D00228C6F800A08D
:1033D0000CBF0E200A2088F800004FE06068B0F8AB
:1033E00016C0BCF1000F08BF41F00401BED0036954
:1033F00003F1040CC0F810C01B6846F8043BD0F879
:1034000008C00369634504BF43680361C38A5B1E48
:10341000C3820123781C45F8044B87B2A6E7C5F8A0
:1034200000A00098FFF7BEFD88F800A005B0384660
:10343000BDE8F08F18E0C46924B1E5E8014A781CC2
:1034400087B2BCE780F82BB04946FFF7C8FEB6E765
:103450002078012812BF0228486A30600CD0032867
:1034600008BFC6F800A007D00098FFF79BFDC5F87D
:1034700000A088F800B0D9E788F800A0906980F82B
:103480002AA080F82BA0C0F81CA0C0F820A0C0F88B
:1034900024A00098FFF786FDC8E7144CFFF77EFDD7
:1034A0006169491C6161FFF77DFDFFF7CDFDF5E71F
:1034B000002914BF0022704700F8012B491E09049F
:1034C000090CF9D1704730B587B0FFF7B9FD074B4C
:1034D00000249C621C705C709C715C719C605C61DF
:1034E0001C7103F11000214608E000003C000020A0
:1034F000186D00084C000020CC030020491CC9B204
:1035000000F8014B0429EFD39C70DC701C62FC486E
:1035100040F6A8219C61491E090400F8014B090CE2
:10352000F9D1F8498020401E000401F8014B000C3D
:10353000F9D1F3480022054605F158014FF03F0C40
:10354000416180F848C080F84940521C58305831D9
:10355000D2B21E2AF4D3446180F848C080F84940B2
:10356000E948DD61F0215C62491E090400F8014B65
:10357000090CF9D1E4480022054605F11801047050
:10358000416080F80FC00474521C1830183192B298
:10359000092AF4D30470446080F80FC00474DD601D
:1035A00000F0D3FC0321CDE903414FF6FF718022E7
:1035B0000091D648CDE901021F2300F5FE720021DB
:1035C000AFF2291000F0C7FE05AAD1A11F2000F01C
:1035D0004AFF07B0BDE83040FFF733BDD049487916
:1035E000012818BF70470878FF283CBF401C0870AE
:1035F000704770B5CA4C6079012818BF70BDFFF7DD
:10360000CDFC2178054621B1481E10F0FF01217044
:103610001AD16078C0B9C3482179C34A415C525C71
:10362000805C00EBC100C1B2E170A07881420BD098
:10363000B44850F821102162486B401C4863A068D0
:10364000401CA060FFF7C6FC2846BDE87040FFF7AD
:10365000A9BC10B5B24C6079012818BF10BDFFF7A6
:103660009DFC217821B96178FF293CBF491C61701C
:10367000BDE81040FFF796BC10B5A94C6079012851
:1036800018BF10BDFFF78AFC617839B1491E11F0EF
:10369000FF01617004BF2178002903D0BDE810400C
:1036A000FFF780BCFFF77EFCBDE81040B2E59C4907
:1036B0004879002818BF70479A4A08799A4B105CDD
:1036C0001B5CD25C02EBC000C0B28E4AC87088702E
:1036D00052F8200008628861FFF767BC2DE9F041CD
:1036E000FFF7F0FCFFF75AFC8D4DA96A491CA9624F
:1036F000FFF758FC6879012818BFBDE8F081E87928
:103700000126002738B1012808BFBDE8F081022852
:103710000CBFEE71EF716C6A94F82C001F2814BF77
:10372000DFF80482BDE8F081FFF738FC218D21B37A
:10373000491E0904090C21851FD194F82A1011F0A3
:10374000370F1DBF21F0370184F82A1084F82B6051
:1037500084F82B7094F82A1011F0080F0DD194F80A
:1037600030102A791143297194F82E1094F82F30D3
:1037700018F801201A4308F801206469FFF712FCC9
:1037800094F82C001F28CFD1BDE8F0814FF48F7042
:10379000704790F82E2090F82FC08B18DA7A32EA12
:1037A0000C02DA7218BF70478A7A90F8300022EA69
:1037B00000008872704770B50546807ADFF864C1F2
:1037C0001CF800002C18E47A1CF804C00CEBC00CA8
:1037D0000CF0FF06DFF82CC15CF826404FF0000C1F
:1037E000A4F828C0616294F82A10914384F82A1042
:1037F00084F82B3011F0080F0BD1494994F8302090
:103800000B791A430A71103194F82F300A5C1A436D
:103810000A5494F82E0094F82F202918C87A90435F
:10382000C87205D1A87A94F8301020EA0101A97273
:10383000216A19B12046FFF7D2FCE561304670BD20
:10384000DFF8DCC010B4DCF8181000F10B03C8611D
:1038500091F82E2091F82F10D45C2143D154DCF83C
:103860001810827A91F830301A43827291F82E0043
:103870000CF1100391F82F401A5CA2431A541CBF9C
:1038800010BC704791F830009CF8041021EA000049
:103890008CF8040010BC70470022827200F10B010A
:1038A0001046401CC0B201F8012B0428F9D3704720
:1038B000002A08BF704711F8013B521E120400F89D
:1038C000013B120CF7D1704730B50E4D83B0002488
:1038D0006946204600F049FE60B955F824100029D9
:1038E00018BF012906D0D1E9020200EB820008646A
:1038F00001984864601CC4B21F2CE9D903B030BDE4
:103900004C040020CC030020DC000020CC0100206F
:1039100075432F4F532D49492049646C65000000C1
:103920003C000020186D00084C0000202DE9FF5FCE
:103930009B46DDE90F870D460646DDF83890FFF718
:103940002DFBDFF8E0A0DAF81C40002C64D06169A0
:10395000CAF81C10FFF726FB256084F82C600025B0
:1039600084F82A5084F82B502585C4F80C90C4F8AC
:1039700004800298A0602782A4F812B0F00884F8AE
:103980002E0006F00701012284F82D1002FA00F043
:1039900084F8300002FA01F084F82F00E561256216
:1039A00065626563E563A56325643F20656484F80B
:1039B000480084F849502046FFF783FB2046FFF774
:1039C00041FBFFF7EBFA0246174840F82640DAF8C9
:1039D0002400C4E90505002818BF8461CAF8244002
:1039E00094F830009AF8041008438AF8040094F818
:1039F0002E000E4994F82FC00B5C43EA0C030B54C5
:103A00009AF80600401C8AF806001046FFF7CAFA2A
:103A100004B00020BDE8F09FFFF7C4FA04B04220D4
:103A2000BDE8F09F3C000020CC0300204C000020AB
:103A300070B5054600780C46022803D001200870B6
:103A4000002070BDFFF7AAFA6A680346D08A70B1F9
:103A50001069011D11610568D08A401ED0829068EE
:103A6000814204BF506810610020207002E01F20D6
:103A7000207000251846FFF795FA284670BD2DE9FD
:103A8000F0410646FE480F46007800281CBF002083
:103A9000BDE8F081FFF782FADFF8E883D8F800404C
:103AA000002C1CBF6168C8F80010FFF77BFA3CB31C
:103AB000FFF774FA0146F4480568C5B12A68026048
:103AC0000846FFF76FFA06EB8700C5E90160EE6074
:103AD0002E61AF820020E8820221217020813F21E7
:103AE0006560E17320742046FFF7D6FE08E0D8F841
:103AF000000060600846C8F80040FFF753FA002451
:103B00002046BDE8F0812DE9F05F044600780F46BD
:103B10001546022818BF012001D0107024E0D848B3
:103B20000078002818BF0F20F7D1FFF737FA834637
:103B3000A07A002814BF012600263900DFF8488348
:103B4000DFF840934FF03F0A4FF0000706D00129FD
:103B500024D05846FFF726FA072004E03EB1584625
:103B6000FFF720FA492028702046BDE8F09F84F82E
:103B70000FA027746068D8F800100160C8F8000032
:103B80002770D9F80000606027815846C9F80040C6
:103B9000FFF708FA2F700020BDE8F09F40B1002326
:103BA000042219462046FFF706FEA07A0028F6D127
:103BB00084F80FA027746068D8F800100160C8F876
:103BC00000002770D9F80000606027815846C9F8C6
:103BD0000040FFF7E7F9012E08BFFFF71BFB2F702E
:103BE0000020BDE8F09F10B50446FFF7D7F9014665
:103BF00060684268C26002610022C2820846FFF724
:103C0000D1F9002010BD2DE9F0470546007888461F
:103C10001446022804D0012010700020BDE8F0876F
:103C20009748007820B1022010700020BDE8F0878E
:103C30009648007820B10D2010700020BDE8F08774
:103C4000FFF7ACF96B6881460026D88A80B1186905
:103C5000011D19610568D88A401ED8829868814282
:103C600004BF586818614846FFF79CF9267034E095
:103C7000874F3A6892F82A0040F0040082F82A0040
:103C800082F82B60A2F828802846FFF7D9FD484625
:103C9000FFF788F9FFF7BEFAFFF780F9804638682A
:103CA00090F82B10002904BF456A26700AD002291B
:103CB00004BF00250E2004D02946FFF76AFD002529
:103CC0000A202070386880F82A6080F82B60C6616E
:103CD000066246624046FFF765F92846BDE8F08770
:103CE0002DE9F04188460546017801201646022953
:103CF00018BF10702AD1FFF751F90746A87A00B310
:103D00000024B8F1010F10D002230422002128461C
:103D1000FFF751FD01243846FFF744F9FFF77AFA1F
:103D20000E2030702046BDE8F081022304220021DD
:103D30002846FFF740FD601CC4B2A87A0028F4D1E1
:103D4000E9E73846FFF72EF9002030700020BDE883
:103D5000F08170B5044600780D4602281CBF012092
:103D600070BDFFF71BF90646A07A58B10023042264
:103D700029462046FFF71FFD3046FFF713F9FFF7EE
:103D800049FA19E06068C18A828A914204D33046B8
:103D9000FFF708F91E2070BDC268111DC1601560D3
:103DA000C18A491CC182D0E902128A4204BF41681B
:103DB000C1603046FFF7F6F8002070BD70B50446CC
:103DC00000780D4602281CBF012070BDFFF7E6F801
:103DD0000646A07A58B10023042229462046FFF760
:103DE000EAFC3046FFF7DEF8FFF714FA19E06068E6
:103DF000C18A828A914204D33046FFF7D3F81E204D
:103E000070BD42680169914204BF816801610A1F67
:103E1000026141F8045CC18A491CC1823046FFF747
:103E2000C1F8002070BD2DE9F04104460078154628
:103E30000E4602281CBF0120BDE8F081FFF7AEF856
:103E40000746A07A30B315F0010F09D000230422F1
:103E500031462046FFF7AFFCA07A0028F6D105E0F6
:103E60000023042231462046FFF7A5FC3846FFF721
:103E700099F815F0040F08BFFFF7CCF900200AE00D
:103E80003C00002048000020680000203D00002089
:103E90005400002001E0BDE8F0816068C18A828A98
:103EA000914204D33846FFF77DF81E20E7E715F06E
:103EB000020F0AD042680169914204BF8168016122
:103EC0000A1F026141F8046C09E0C1680A1DC26062
:103ED0000E60D0E902128A4204BF4168C160C18A03
:103EE000491CC1823846FFF75DF80020C7E770B56E
:103EF000054600780C4602281CBF012070BDFFF764
:103F00004DF80146A87A207305F10B0304F108026D
:103F10004FF0000C13F8010B02F8010B0CF101003B
:103F200000F0FF0CBCF1040FF4D36868C28A002AC9
:103F30001CBF026912682260C28AA280808AE08067
:103F40000846FFF72FF8002070BD10B560210A4821
:103F5000FFF7AEFA08480022034603F1180140F8C3
:103F6000181B521C183192B2032AF8D300210160A9
:103F70000248036010BD0000F40E0020680000201D
:103F800070B50446007803281CBF002070BDFFF701
:103F900005F82589002D1CBF691E2181FFF702F855
:103FA000284670BD70B50546BD48007800281CBF86
:103FB000002070BDFEF7F2FF0146BA480468002CED
:103FC0001CBF626802600846FEF7ECFF54B1032094
:103FD0002070258100203F216060E173207420461D
:103FE000FFF75AFC204670BD2DE9F05F04460078CB
:103FF0008B461546032818BF012001D0107023E01E
:10400000A7480078002818BF0F20F7D1FEF7C6FF99
:104010008246A07A002814BF012600264FF03F09EF
:10402000DFF880820027BBF1000F07D0BBF1010F42
:104030001ED05046FEF7B6FF072004E03EB15046C2
:10404000FEF7B0FF492028702046BDE8F09F84F8B5
:104050000F9027742770D8F80000606027815046C1
:10406000C8F80040FEF79EFF2F700020BDE8F09FCB
:1040700040B10023012219462046FFF79CFBA07A9D
:104080000028F6D184F80F9027742770D8F8000024
:10409000606027815046C8F80040FEF783FF012E7C
:1040A00008BFFFF7B7F82F700020BDE8F09F2DE99B
:1040B000F047054600788846144603281EBF0120B5
:1040C0001070BDE8F08776480078002818BF0220FD
:1040D00002D01070BDE8F08773480078002818BF40
:1040E0000D20F6D1FEF75AFF81462889002638B107
:1040F000401E28814846FEF755FF2670BDE8F08730
:104100006A4F3A6892F82A0040F0010082F82A00CB
:1041100082F82B60A2F828802846FFF791FB4846DA
:10412000FEF740FFFFF776F8FEF738FF8046386865
:1041300090F82B10002908BF267008D0022908BF6C
:104140000E2003D02946FFF724FB0A202070386890
:1041500080F82A6080F82B60C66106624046BDE8A0
:10416000F047FEF71FBF2DE9F0418846054601786C
:1041700001201646032918BF10702AD1FEF70EFF42
:104180000746A87A00B30024B8F1010F10D002232B
:10419000012200212846FFF70EFB01243846FEF7D6
:1041A00001FFFFF737F80E2030702046BDE8F081A0
:1041B0000223012200212846FFF7FDFA601CC4B249
:1041C000A87A0028F4D1E9E73846FEF7EBFE002094
:1041D00030700020BDE8F08170B5044600780328F7
:1041E0001CBF012070BDFEF7D9FE0546A07A58B16C
:1041F0000023012219462046FFF7DDFA2846FEF784
:10420000D1FEFFF707F809E020894FF6FF718842D9
:1042100006D2401C20812846FEF7C4FE002070BD57
:104220002846FEF7BFFE322070BD70B50446007808
:104230000D4603281CBF012070BDFEF7AFFEA17A1A
:10424000AB1CA97104F10B0C00221CF8011B03F834
:10425000011B511CCAB2042AF7D321892980FEF719
:10426000A1FE002070BD70B5044600780E461546CC
:1042700003281EBF0120107070BDFEF78FFE0021C5
:104280002970218951B9FFE7A17A00291CBF492172
:10429000297003D0BDE87040FEF784BE2681F9E79F
:1042A0003C000020480000203D0000205400002079
:1042B0002DE9F04184B01C4615460E468046FEF7B7
:1042C0006DFEF849097829B1FEF76CFE04B03C2078
:1042D000BDE8F081F44F57F8241029B1FEF762FED3
:1042E00004B02820BDE8F081012147F82410FEF732
:1042F00059FE00232A4631464046FEF7A7FE002617
:104300000146009601963346324620460296FFF754
:104310000DFB050009D0FEF741FE47F82460FEF7CB
:1043200041FE04B02846BDE8F081E048007801284D
:1043300008BFFEF76FFFF4E712F0010F14BF12F091
:10434000020F7047002914BF00227047491E40F831
:10435000042BFBD170472DE9FF4F83B01C46DDE9EC
:104360001175DDE91386DDF840B0FEF717FECD4983
:10437000097829B1FEF716FE07B03C20BDE8F08FA2
:10438000DFF8249359F8241029B1FEF70BFE07B08B
:104390002820BDE8F08F012149F82410FEF702FE25
:1043A0003946284616F0010F4FF0000A1CBF16F0E0
:1043B000020F002803D0401E41F804ABFBD1DDE919
:1043C00003013346059AFEF741FECDE90058014648
:1043D0005B463A4620460296FFF7A8FA050009D048
:1043E000FEF7DCFD49F824A0FEF7DCFD07B0284607
:1043F000BDE8F08FAD480078012808BFFEF70AFF3E
:10440000F4E72DE9F0410546A6480E46144600782B
:1044100000281CBF1120107022D1FEF7BFFD0746F7
:10442000FF2D03D1A248006890F82C509E4850F808
:1044300025004325002818BF01280DD000F14801B0
:104440003046FEF741FE05463846FEF7ABFD00203C
:1044500020702846BDE8F0813846FEF7A3FD2570A0
:104460000020BDE8F0812DE9F04105468D480F465A
:104470001446007800281EBF12201070BDE8F0819D
:10448000FEF78CFD8046FF2D03D18948006890F827
:104490002C508548432650F82550002D18BF012D7B
:1044A00009D03846FEF750FE0F280AD94046FEF7DD
:1044B00079FD41200EE04046FEF774FD2670BDE810
:1044C000F081394605F14800FEF7FEFD4046FEF753
:1044D00069FD00202070BDE8F08110B50446FEF7AC
:1044E0005DFD0346704850F8240098B1012816D0AD
:1044F00090F82A1011F0080F32D031F0080180F83E
:104500002A1004BF018D00290ED01846FEF74AFD7F
:10451000002010BD1846FEF745FD462010BD184688
:10452000FEF740FD432010BD624990F8302091F81D
:1045300000C042EA0C020A7090F82E105E4A90F811
:104540002F0012F801C04CEA000050541846FEF744
:1045500029FD56480078012808BFFEF75BFED7E723
:104560001846FEF71FFD442010BD2DE9F04104461A
:10457000002008600E464860FEF710FD0146FF2C43
:1045800003D14B48006890F82C40474850F824006D
:10459000002818BF01280DD0027C12F0010F0FD0A7
:1045A000D0E9024700250846FEF7FCFC54F8040B4E
:1045B00060B110E00846FEF7F5FC4320BDE8F0814D
:1045C0000846FEF7EFFC4520BDE8F08154F8040BE7
:1045D0006D1C0028FAD0A8003060781B8000706045
:1045E0000020BDE8F08170B50446FEF7D7FC844694
:1045F0002F48FF2C006804BF90F82C40012505D0FF
:1046000090F82C00A0420CBF01250025264850F848
:10461000240058B101280ED090F82E10264B90F8A7
:104620002F405A5CA2435A540AD010E06046FEF76D
:10463000B9FC482070BD6046FEF7B4FC432070BD55
:104640001C4990F830200B7823EA02020A7090F897
:104650002A1041F0080180F82A106046FEF7A2FCFB
:10466000012D08BFFEF7D6FD002070BD70B50D46C8
:104670000446FEF793FC0646FF2C03D10C48006865
:1046800090F82C40084850F82410B9B101291AD0EC
:1046900058222846FFF70CF93046FEF783FC00202D
:1046A00070BD00003C000020CC0300204100002031
:1046B00054000020400000204C0000203046FEF74F
:1046C00071FC2920ECE73046FEF76CFC4320E7E75D
:1046D00070B504465C480078002818BF70BD002CF7
:1046E00008BF70BDFEF75AFC844658480168584818
:1046F00091F82E2091F82F50835CAB43835406D160
:10470000544891F83020037823EA020202700C85A5
:104710006046FEF747FCBDE87040FEF77BBDDFF862
:1047200028C19CF800C0BCF1000F1CBF5520704789
:1047300010B54FF47A7C03FB0CF3B3FBFCF34FF49E
:10474000616C00FB0CF0C1EB011100EB8100104427
:1047500000EB4001C1EBC01003EBC000040C80B2C1
:10476000FFF7B6FF5CB14FF40040FFF7B1FF4FF425
:104770000040FFF7ADFF601E0404240CF3D10020BD
:1047800010BD1F2824BF2A20704710B50446FEF72D
:1047900005FC0346304850F82400002818BF0128C3
:1047A0001CD0018DF9B10022028590F82A1011F079
:1047B000370F08BF80F82B2006D021F0370180F892
:1047C0002A10012180F82B1090F82A1011F0080F00
:1047D0000ED01846FEF7E6FB002010BD1846FEF787
:1047E000E1FB432010BD1846FEF7DCFB502010BD56
:1047F000184990F8302091F800C042EA0C020A7083
:1048000090F82E10124A90F82F0012F801C04CEACE
:10481000000050541846FEF7C5FBFEF7FBFCDBE733
:1048200010B5FEF7BBFB0D490C68FEF7BBFB20463D
:1048300010BD10B50446FEF7B1FB08490C60BDE899
:104840001040FEF7AFBB00003C00002054000020E9
:104850004C00002040000020CC0300206400002019
:1048600070B50446DD49DE4801F0E9FB4CB1012C8E
:104870000DD0032C11D0BDE87040DAA1D84801F06A
:1048800021BCBDE87040D9A1D54801F01BBCBDE8F2
:104890007040D7A1D24801F015BCD84A0020DFF8FB
:1048A00060C3D84C907002F11005BCF80000A4FB66
:1048B0000031C908494201EB810100EB410101F1DE
:1048C00030039178C1F10306AB554CF6CD43584304
:1048D000C00CACF80000481CC0B290700428E4D3AF
:1048E000BDE87040C849BE4801F0ECBBC84CC74E9B
:1048F000BA4DDFF80C934FF000084FF03D0AA4F1D9
:104900001507BE4A0021B868FFF7D1FB0822C1A1F4
:10491000B24801F068FB00282AD00A22C0A1AF48A3
:1049200001F061FB00283AD00A22C0A1AB4801F097
:104930005AFB00284AD00D22BFA1A84801F053FB22
:1049400000287DD00D22C0A1A44801F04CFB002816
:1049500077D00A22C0A1A14801F045FB002871D000
:104960000922C0A19D4801F03EFB00286BD0D6E093
:10497000A64905F1080001F0D5FA01F029FBB6F9C6
:104980000000642820D8C1B20220FEF72BF9402194
:104990009E4801F0E8FB0020FFF762FFBFE09B4963
:1049A00005F10A0001F0BEFAB6F9000064280BD840
:1049B000C1B20120FEF716F94021944801F0D3FB63
:1049C0000020FFF74DFFAAE001205DE08F4905F1CF
:1049D0000A0001F0A7FAB6F90000FF28F4D8B6F9EA
:1049E00002100029F0DBFF29EEDCB6F904100029E3
:1049F000EADBFF29E8DC45F2565148430114A1EBFC
:104A0000E070C1B20320FEF7EDF8B6F9020045F2FE
:104A1000565148430114A1EBE070C1B20420FEF7E7
:104A2000E1F8B6F9040045F2565148430114A1EBF0
:104A3000E070C1B20520FEF7D5F84021734803E0CD
:104A400008E024E03CE05BE001F08DFB0020FFF794
:104A500007FF64E06D4905F10D0001F063FAB6F956
:104A60000000012807D0002804BF00210120ABD19D
:104A7000FEF7ECF822E001210846FEF7E7F84021B6
:104A8000624801F070FB19E0FFF7EAFE47E05F497A
:104A900005F10D0001F046FAB6F90000012805D035
:104AA000002804BF00210220E2D08DE7012102206E
:104AB000FEF7CCF84021554801F055FB0020E3E714
:104AC000524905F10A0001F02DFAB6F90030D9B2C9
:104AD000797087F80280002B09DDB87806EB400278
:104AE000127C2254401CC0B2B8708342F5DC4848A6
:104AF000FEF7CCF94021454801F035FB0020C3E723
:104B0000FEF74CFA7860FEF703FAA9F8000085F882
:104B100008A00320FFF7A4FE7868FEF743FA60219F
:104B20002E4801F020FBF868FFF756FBE9E6FDF799
:104B30007CFAC820FDF7B9FAFDF77CFA4FF42F6034
:104B4000FDF7B3FAF3E74A4C2C4D01F0A2F82078B8
:104B500010F0400FF9D0A868FFF73EFB274A00216C
:104B6000E868FFF7A4FA207840F020002070207851
:104B700020F040002070E8E710B50020FFF712FA9F
:104B80001E4CA0600020FFF70DFAE060FEF706FA69
:104B90006060FDF757FA6068FEF704FAFEF7FEF969
:104BA00060600F23334A0021AFF26500FFF780FBFE
:104BB0000923314A0021AFF28900FFF779FB07236F
:104BC0002E4A0021AFF2DB20FFF772FB0120FFF736
:104BD0000AFD6068BDE81040FEF7E4B9D442002049
:104BE000744200204552524F523221003A4F4B003E
:104BF0003A4552524F523121000000006C00002013
:104C000032000020CDCCCCCC7C00002034430020EE
:104C1000810000205359533A4C45443A00000000AB
:104C20005359533A4D4F544F523A00005359533A47
:104C3000434F4C4F523A00005359533A52454C415E
:104C4000595F484B3A0000005359533A52454C4182
:104C5000595F4C4B3A0000005359533A4C4F474967
:104C6000433A00005359533A54454D503F3A0000DF
:104C7000D20000205031002050110020504100206F
:104C8000FE490881704710B4C278FD4C0A44D3B283
:104C9000E370827802EB1122D2B2A27090F801C0C8
:104CA00084F801C000782070B2EB112F08D20CF10B
:104CB000010C1CF0FF0C84F801C004BF401C2070E4
:104CC000C8B2834224BF10BC7047501C10F0FF00D4
:104CD000A0701CBF10BC70476078401C10F0FF0033
:104CE00060701CBF10BC70472078401C207010BC46
:104CF0007047010241EA102080B270470A4610B5A1
:104D00000146002000F094FD010241EA102080B22B
:104D100010BD10B51422DB49002000F089FD0028E9
:104D200004BF4FF6FF7010BD010241EA102080B2AF
:104D300010BD70B5D44C6FF01302217C607C02EB87
:104D40000121084485B2A81D80B2082204F11A018D
:104D500000F06EFD2A4604F1220100F069FD0028F2
:104D600004BF4FF6FF7070BD010241EA102080B20F
:104D700070BDC2490022C54B4A70487823F8102004
:104D8000401CC0B248700628F7D3C14B4A7048781F
:104D900000EB800C03EBCC0C401CC0B28CF819204B
:104DA00048700228F3D34FF48060488170472DE9A2
:104DB000F001B74CDFF8C4C205464FF48057002617
:104DC000BCF80A00401C80B2ACF80A00B0F5FA4FFB
:104DD00028BFACF80A708CF80160BCF80A00020227
:104DE00042EA102083B29CF8010000EB800204EB41
:104DF000C20292F81980B8F1000F02D09288934253
:104E0000DED0401CC0B28CF801000228EBD3002099
:104E10008CF801609CF8013003EB830204EBC202C2
:104E2000577E17B1072F02D008E010460CE020B1E2
:104E3000977E90F81A80474500D910465A1CD2B286
:104E40008CF80120022AE5D3002804BFBDE8F00158
:104E50007047022242768F4A137803735378437364
:104E600093788373D278C2732A224282828201228B
:104E70000282C67682760322027686751022C27579
:104E8000BCF80A20130243EA12228280C1802988DA
:104E9000018069884180BDE8F001704710B4774A0D
:104EA00000247A4B5470517833F811C0844504D1F2
:104EB000C8B223F8104010BC7047491CC9B25170E9
:104EC0000629F0D310BC70476C4A00216F4B51701B
:104ED000C9B233F811C0BCF1000F05D0491CC9B2EA
:104EE00051700629F4D37047C9B223F811007047F6
:104EF00010B5624C0146E0690830FFF7C4FE04F1CA
:104F00002401E0690A7802724A7842728A788272D1
:104F1000C978C17210BD2DE9F05F584F5E49002578
:104F2000FC6979614FF0010B4FF01008A1F13606D2
:104F3000B961032806D002280ED0B07B45287DD069
:104F400000F064BC607E00F00F00032804BF208ADC
:104F5000002840F05B846DE04E49C878401C10F09A
:104F6000FF00C8700ED18878401C10F0FF008870D8
:104F700008D14878401C10F0FF00487002D1087832
:104F8000401C0870BD80FD80607E072818BF052882
:104F90000BD0002800F03A84218A002945D0A07E59
:104FA000411EA17650B100F031BCA07E401CC0B2C1
:104FB000A076782808BF657600F028BCE07E082837
:104FC00020D0617E022914BF012905281AD00428A7
:104FD00088BF0420032101FA00F0A076E07E401C87
:104FE000E076607E00F00F00092880F00F84DFE893
:104FF00010F05903BE01110015003903590339039C
:105000005903390365768020387000F0A5FE14201E
:1050100000F029BB86F82F5000F0ABB9042038709F
:1050200000F09AFE00F052BB08E000F00F000328E9
:1050300040F0EC830820387000F0BFBA707C317CFF
:1050400000EB0120B988884200F2E083B880307D0F
:1050500010F03F0F04BF707D002840F0D7830F4849
:1050600001884088002908BF002806D0F28B8A42B8
:1050700004BF318C814240F0C98311E08C000020D4
:10508000B00000206241002054410020084200206E
:10509000B8410020AC0000208A4100209A00002086
:1050A000142206F10E01002000F0C2FB00280FBF01
:1050B0004FF6FF70010241EA102080B24FF6FF74F4
:1050C000A04240F0A383F07D06281AD0012804BF37
:1050D00096F82200082840F0998386F82250B08C78
:1050E0004FF6F77188422CBF09300830B084708BBE
:1050F000F083B08B3084FB48018871834088B08393
:10510000B5E0FFF716FEA04240F08083F64C04F1B4
:10511000280A544516D8B6F822C0738BB28BB08CCF
:10512000617E61B1A188884204BFE1888C4506D1C7
:1051300021888B4204BF61888A4200F03C81283478
:105140005445EDD996F82F0000F03F00022810D109
:10515000B28CBA81E5497D70B94699F8010031F801
:10516000103093427ED0401CC0B289F8010006285E
:10517000F3D396F82F0010F0040F40F0478314206B
:1051800086F82F002820B880502086F82E0096F848
:10519000293096F82D0086F8290096F8280096F810
:1051A0002C1086F8281086F82C0096F8271096F810
:1051B0002B2086F8272086F82B1096F826207A7068
:1051C00096F82AC086F826C05B1C86F82A2013F0C1
:1051D000FF0386F82D300ED1401C10F0FF0086F83A
:1051E0002C0008D1481C10F0FF0086F82B0004BFEB
:1051F000501C86F82A00708CB881B18C7184B08400
:10520000708BF083B08B3084B648018871834088FE
:10521000B0834020B075B888010A3174707486F884
:10522000355086F834507586FFF783FDC04370868D
:105230004520B073F5737575357538891422401C97
:105240003881010AB174F074358306F10E01002033
:1052500000F0EEFA00280EBF4FF6FF70010241EA9F
:10526000102000E006E018BF80B2C04330833D70DC
:10527000BDE8F09FDFF870C2002489F8015099F86A
:10528000011001EB81000CEBC000427E12B1072A35
:1052900006D00BE0C8B200EB80000CEBC0040BE0C2
:1052A0001CB1827EA37E9A4200D90446481CC0B23B
:1052B00089F801000228E2D3002C00F0A782032025
:1052C000C9F81C40A0762076A5750420E075E57627
:1052D000B08CA080708CE080708B2080B08B608060
:1052E000834884F819B0017821734178617381781B
:1052F000A173C078E073A4F810B096F82900E072AA
:1053000096F82800A07296F82700607296F826009A
:1053100020720120FFF7ECFD96F82E0000F0F0015E
:10532000502924D900098000A0F1140389F8015004
:10533000002B1CDD99F80120B11891F8360089F88E
:105340000200A0B1012808BF501C0BD0022804BFE6
:1053500091F83700042822D091F83700002818BFB0
:10536000104404D089F80100C0B28342E2DC86F820
:105370002F8096F82F0040F0020086F82F000220C0
:1053800086F83600042086F8370086F838502A2040
:1053900086F839002C20B880602000F0F9B9D0B22E
:1053A0003044008F40BAA9F80C002A2888BF2A2070
:1053B0006082A082DBE7FC613D7096F82F0010F060
:1053C000040F06D065762020387000F0C5FC00F090
:1053D0001DBA96F82E10B146090989007970BA886D
:1053E000511A143989B2B980627E02F00F02022A82
:1053F00004BF00F03F02122A1DD0002908BF10F0A0
:10540000030F18D096F82620237A31469A4240F0AE
:10541000BA8191F82720637A9A4240F0B48191F8DA
:105420002820A37A9A4240F0AE8196F82910E27AB9
:10543000914240F0A88110F0100F1CBF218A002972
:105440002AD004F10C00FFF71EFCDFF8A8C099F881
:105450002A004B469CF800A050451DD193F82B1014
:105460009CF80100814217D193F82C109CF802207F
:10547000914211D199F82D309CF803108B420BD139
:1054800084F80CA06073A273E173E07E98B187F892
:1054900000B0207EA0762582617E4FF0070A01F0E1
:1054A0000F00092880F0B281DFE800F0FC2638A860
:1054B000FBFAF9F8F700207EA17E411AA07DA1EB4E
:1054C000D00149B20844C2B2A2750029BCBF48420B
:1054D00041B2E07DA1EB90010844E07500EBD20001
:1054E0002076D4E79A000020B8410020084200202E
:1054F000AC000020B0000020387810F0010F00F060
:10550000858103206076402038702582B888002885
:1055100073D042213970FFF7EBFCC8E0387810F007
:10552000010F05D099F82F0000F03F00122806D097
:105530002020387000F010FCF869457619E699F8DB
:105540002E0000F0F001502921D900098000A0F1BF
:1055500014037D70002B1ADD7A7809EB020191F8B3
:105560003600B87098B1012808BF501C0BD0022833
:1055700004BF91F83700042834D091F83700002890
:1055800018BF104403D07870C0B28342E4DC03201B
:10559000607699F82600207299F82700607299F8D1
:1055A0002800A07299F82900E0720120FFF7A0FC02
:1055B000422038702582BD80FD8000F0CDFB387818
:1055C00010F0200F1CBFFD8065767FF420AD10F039
:1055D000100F6ED0FD80A4F810B004206076E57640
:1055E000112040E0D0B24844008F40BAB8812A2848
:1055F00088BF2A206082A082C9E758E099F82F006E
:1056000010F0010F02D011F0100F12D010F0200F87
:1056100009D0B9F834007B6942BA1A447A61BA8871
:1056200040BA101AB880B88830B311F0100F1DD0EE
:1056300022E0208A002835D1B888401C80B2FFF7CC
:1056400057FC387840F010003870B98800291CBF2A
:1056500040F00200387000F07FFBA4F810B0082082
:105660006076E576112086F82F008EE0397841F0DB
:1056700002013970FFF73CFC99F8310099F83010BD
:1056800000EB012080B2B881A18A814200D300B929
:10569000B981B8896082387806E035E073E0AEE021
:1056A00061E03AE05BE004E010F0030F57D0FD80CA
:1056B00083E7F98849B110F0010F18BF258213D193
:1056C000208A002818BFF8800ED0E576B869786186
:1056D000F88800281CBF208A00280CD02830B88009
:1056E000182086F82F0052E0608A884238BFF88080
:1056F000F8882082E9E7387810F0020F2FD02820B0
:10570000B88086F82F8042E0387810F0010F1CBF77
:10571000657687F8008079D057E6B888002818BFEA
:10572000FFF7E6FB99F82F0010F0010F387800F032
:10573000010010D0002807BF0620607684F819A069
:10574000A57618BF25820120FFF7D2FB87F80080DD
:1057500000F002FB17E018B105206076258255E0C5
:10576000B88880B952E0B888002818BFFFF7C0FB9E
:1057700099F82F0010F0010F1CBF84F819A0A5762E
:10578000E1D1B888D0B389F82F802820B880502084
:1057900086F82E00207A86F82A00607A86F82B0098
:1057A000A07A86F82C00E07A86F82D00207B86F817
:1057B0002600607B86F82700A07B86F82800E07B27
:1057C00086F829000620F075A0887084E088B084EF
:1057D0002748018871834088B0832088F0836088DF
:1057E0003084607E10F0100F18BF86F8315086F8B4
:1057F000305004BF2A2086F831000AE506E03878E8
:1058000010F0010F1CBF84F819A0A576BD803D7073
:10581000BDE8F09F03460029D8BF70478AB21548FB
:10582000C2808069834208BF7047194600F056BCA9
:105830000A44531E99420ED24A7891F800C002EBF6
:105840000C2292B2104480B290423CBF401C80B205
:10585000891C9942F0D318BF704709784FEA01219B
:10586000084480B288423CBF401C80B270470000B0
:105870009A0000208C000020BA490022BA4B0A701E
:10588000087800EB400C03EB8C0C401CC0B2CCF849
:10589000002008700828F3D3704770B4B14A4FF065
:1058A000000CB14C9078401CC3B2937082F800C0D9
:1058B000117801EB410004EB8000058846883543F0
:1058C00005D0857A5D1B782DA8BFC0F800C0481CA4
:1058D000C0B210700828EBD370BC70472DE9F001FE
:1058E000A04E0027A04D3770337803EB430205EB41
:1058F0008202B2F800C0BCF1000F1CBF5488002C1B
:1059000010D0B0F80080E04504BFB0F802C0A44554
:1059100008D10868506088881081B0789072BDE81E
:10592000F00170475A1CD2B23270082ADCD33770AB
:10593000337803EB430205EB8202B2F800C0BCF1FE
:10594000000F04BFB2F802C0BCF1000F04D05B1C12
:10595000DBB23370082BEBD3DBB2082B1CD1F77012
:105960007770377096F802C03278F47802EB420311
:1059700005EB83039B7AACEB0303A342C4BFF37034
:105980007270521CD2B23270082AEDD37278327023
:1059900002EB420205EB820200681060B9E770B5C5
:1059A000724D0020298828802A2938BF70BD704C8C
:1059B000704E2046B4F814C0C38C018D32887088B4
:1059C000BCF5807F0DD0BCF5007F0CBF934270BD4D
:1059D000814218BF70BD04F11601BDE87040881DFA
:1059E0007CE793420CBF814270BD04F11601881D13
:1059F000FFF774FF4FF40070A082D4F816102162F4
:105A00005D48638BA3840268C4F816208088608395
:105A1000C4F8062060812160A380A08BE084E08B25
:105A200020853088A0837088E0834FF4C160A08116
:105A30002A20288070BD2DE9F05FDFF834A14E4B9D
:105A40005046BAF81E104FF6FF72008C9D881C68F5
:105A50004FF0080B914208BF904207D147480168B8
:105A6000CAF800108088AAF804003EE0DFF810C1F0
:105A7000404EBCF80020B6F8009001EA0203B6F8E8
:105A8000028009EA02023F4E934209D1BCF802208B
:105A900000EA020308EA0202934208BF318003D001
:105AA00039480188318040882E4B70800020187062
:105AB0003788DFF8B4C07688197801EB41000CEB29
:105AC00080000288974204BF4288964204D0491C55
:105AD000C9B219700829EFD3C9B2082911D0426898
